{
  "transactions": [
    {
      "hash": "0x3222ca4c2cf30bbbefae1440fbcb85a5068967422732b75e1424a9f606c62d8f",
      "transactionType": "CALL",
      "contractName": null,
      "contractAddress": "0x779877a7b0d9e8603169ddbd7836e478b4624789",
      "function": "transferAndCall(address,uint256,bytes)",
      "arguments": [
        "0x9DdfaCa8183c41ad55329BdeeD9F6A8d53168B1B",
        "3000000000000000000",
        "0xee08a3c0323df7635200843a9eb13b537fde643948d8697987b8f1a41c511539"
      ],
      "transaction": {
        "from": "0x30f8fcd90bda3651dd0cc0c7498c0cbf0e5224f3",
        "to": "0x779877a7b0d9e8603169ddbd7836e478b4624789",
        "gas": "0x1a8ee",
        "value": "0x0",
        "input": "0x4000aea00000000000000000000000009ddfaca8183c41ad55329bdeed9f6a8d53168b1b00000000000000000000000000000000000000000000000029a2241af62c000000000000000000000000000000000000000000000000000000000000000000600000000000000000000000000000000000000000000000000000000000000020ee08a3c0323df7635200843a9eb13b537fde643948d8697987b8f1a41c511539",
        "nonce": "0x1f",
        "chainId": "0xaa36a7"
      },
      "additionalContracts": [],
      "isFixedGasLimit": false
    }
  ],
  "receipts": [
    {
      "status": "0x1",
      "cumulativeGasUsed": "0x27031ae",
      "logs": [
        {
          "address": "0x779877a7b0d9e8603169ddbd7836e478b4624789",
          "topics": [
            "0xddf252ad1be2c89b69c2b068fc378daa952ba7f163c4a11628f55a4df523b3ef",
            "0x00000000000000000000000030f8fcd90bda3651dd0cc0c7498c0cbf0e5224f3",
            "0x0000000000000000000000009ddfaca8183c41ad55329bdeed9f6a8d53168b1b"
          ],
          "data": "0x00000000000000000000000000000000000000000000000029a2241af62c0000",
          "blockHash": "0x364ebb3c237055d4e5010e409a1164d779775ff7ac007a20530d14f382f86694",
          "blockNumber": "0x97c3c9",
          "blockTimestamp": "0x6953f0b8",
          "transactionHash": "0x3222ca4c2cf30bbbefae1440fbcb85a5068967422732b75e1424a9f606c62d8f",
          "transactionIndex": "0xd3",
          "logIndex": "0x61c",
          "removed": false
        },
        {
          "address": "0x779877a7b0d9e8603169ddbd7836e478b4624789",
          "topics": [
            "0xe19260aff97b920c7df27010903aeb9c8d2be5d310a2c67824cf3f15396e4c16",
            "0x00000000000000000000000030f8fcd90bda3651dd0cc0c7498c0cbf0e5224f3",
            "0x0000000000000000000000009ddfaca8183c41ad55329bdeed9f6a8d53168b1b"
          ],
          "data": "0x00000000000000000000000000000000000000000000000029a2241af62c000000000000000000000000000000000000000000000000000000000000000000400000000000000000000000000000000000000000000000000000000000000020ee08a3c0323df7635200843a9eb13b537fde643948d8697987b8f1a41c511539",
          "blockHash": "0x364ebb3c237055d4e5010e409a1164d779775ff7ac007a20530d14f382f86694",
          "blockNumber": "0x97c3c9",
          "blockTimestamp": "0x6953f0b8",
          "transactionHash": "0x3222ca4c2cf30bbbefae1440fbcb85a5068967422732b75e1424a9f606c62d8f",
          "transactionIndex": "0xd3",
          "logIndex": "0x61d",
          "removed": false
        },
        {
          "address": "0x9ddfaca8183c41ad55329bdeed9f6a8d53168b1b",
          "topics": [
            "0x1ced9348ff549fceab2ac57cd3a9de38edaaab274b725ee82c23e8fc8c4eec7a",
            "0xee08a3c0323df7635200843a9eb13b537fde643948d8697987b8f1a41c511539"
          ],
          "data": "0x000000000000000000000000000000000000000000000000000000000000000000000000000000000000000000000000000000000000000029a2241af62c0000",
          "blockHash": "0x364ebb3c237055d4e5010e409a1164d779775ff7ac007a20530d14f382f86694",
          "blockNumber": "0x97c3c9",
          "blockTimestamp": "0x6953f0b8",
          "transactionHash": "0x3222ca4c2cf30bbbefae1440fbcb85a5068967422732b75e1424a9f606c62d8f",
          "transactionIndex": "0xd3",
          "logIndex": "0x61e",
          "removed": false
        }
      ],
      "logsBloom": "0x00000004000000000000000000000000000000000020000000000000020000000000000000000000000000000000000000000000000000000000000000000000000004000000000000000008000000000000000000000000000020000020000008000000008000800000000000000000000000000000000000000010000040000000000000000000000000810000800000000020000000040000000000000000000000000000000000000000010000000000000000000000000006000000000000000002000000000000000000000000000000000000000100000000000000000010000000000000800000000000000000000000000000000000000000000000",
      "type": "0x2",
      "transactionHash": "0x3222ca4c2cf30bbbefae1440fbcb85a5068967422732b75e1424a9f606c62d8f",
      "transactionIndex": "0xd3",
      "blockHash": "0x364ebb3c237055d4e5010e409a1164d779775ff7ac007a20530d14f382f86694",
      "blockNumber": "0x97c3c9",
      "gasUsed": "0x133a5",
      "effectiveGasPrice": "0x399aec59",
      "from": "0x30f8fcd90bda3651dd0cc0c7498c0cbf0e5224f3",
      "to": "0x779877a7b0d9e8603169ddbd7836e478b4624789",
      "contractAddress": null
    }
  ],
  "libraries": [],
  "pending": [],
  "returns": {},
  "timestamp": 1767108793,
  "chain": 11155111,
  "commit": "9bc8702"
}